S01F000046696E616C50726F6A65637446726F6D536372617463682E73726563E8
S11300000C942A000C9447000C9447000C9447006D
S11300100C9447000C9447000C9447000C94470040
S11300200C9447000C9447000C9447000C94470030
S11300300C9447000C9438010C945D010C94470017
S11300400C9447000C9447000C9447000C94470010
S11300500C94470011241FBECFE5D8E0DEBFCDBF0E
S113006010E0A0E6B0E0E8E0F3E002C005900D92F5
S1130070A437B107D9F720E0A4E7B0E001C01D928E
S1130080AE3AB207E1F70E9449000C9482010C9445
S11300900000FFCFCF93DF9390E0FC01EE0FFF1F32
S11300A0E458FF4F208131814CE0489FD001499FA3
S11300B0B00D1124A959BF4F0D90BC91A02D4C91A6
S11300C0DC0155E0AA0FBB1F5A95E1F7A20FB31F3D
S11300D0A257BF4F4C93208131812F31310538F421
S11300E0208131812F5F3F4F3183208302C01182F1
S11300F01082FC01EC58FF4F20812F5F2083DC012C
S1130100AB58BF4F2C912130E9F520812B31D0F130
S113011023E1FC01EA58FF4F20831C92FC01E958BB
S1130120FF4F2081222371F110822CE0289FD001FF
S1130130299FB00D1124A959BF4F1296CD91DC917E
S11301401397488127E0289FF001299FF00D11247F
S1130150E05AFF4F81E090E09C01058002C0220F2D
S1130160331F0A94E2F7242B288316960D90BC9132
S1130170A02D2C91068002C0880F991F0A94E2F7E3
S1130180822B8C93DF91CF910895CF93DF9390E0EE
S1130190FC01EA58FF4F2081222379F02CE0289FAC
S11301A0D001299FB00D1124A959BF4F0D90BC91C6
S11301B0A02D80818C93108258C09C01220F331F84
S11301C0F901E658FF4F40815181D901A858BF4F2A
S11301D02D913C914217530729F12CE0289FD0011F
S11301E0299FB00D1124A959BF4FCD91DC912081D5
S11301F03181DC0184E0AA0FBB1F8A95E1F7A20FCD
S1130200B31FA258BF4F8C918883808191810F972F
S113021030F48081918101969183808326C011827C
S1130220108223C0FC01E958FF4F21E020832CE019
S1130230289FF001299FF00D1124E959FF4FA28155
S1130240B3812C9137E0389FF001399FF00D1124D0
S1130250E05AFF4F81E090E0058002C0880F991FAB
S11302600A94E2F7809582238C93DF91CF910895CD
S11302701F920F920FB60F9211242F933F934F9317
S11302805F936F937F938F939F93AF93BF93EF93FA
S1130290FF9380E00E944A00FF91EF91BF91AF91DC
S11302A09F918F917F916F915F914F913F912F918A
S11302B00F900FBE0F901F9018951F920F920FB6BC
S11302C00F9211242F933F934F935F936F937F93D8
S11302D08F939F93AF93BF93EF93FF9380E00E941C
S11302E0C500FF91EF91BF91AF919F918F917F9145
S11302F06F915F914F913F912F910F900FBE0F908F
S10B03001F901895F894FFCF3B
S1130308010207040305052C002A0040002B0040C5
S107031800290000B4
S9030000FC
