:100000000C942C000C9454000C9454000C94540048
:100010000C9454000C9454000C9454000C949C00C8
:100020000C9454000C9454000C9454000C94540000
:100030000C9454000C94D8010C94FD010C945400C1
:100040000C94A6000C9454000C9454000C9454008E
:100050000C945400E200E60011241FBECFE5D8E066
:10006000DEBFCDBF10E0A0E6B0E0EAE6F4E002C0FB
:1000700005900D92A437B107D9F720E0A4E7B0E0CE
:1000800001C01D92A43BB207E1F710E0CBE2D0E043
:1000900004C02197FE010E942202CA32D107C9F78B
:1000A0000E94D8000C9428020C940000FC011182DC
:1000B00010821382128215821482F89487B38863A7
:1000C00087BB81B3806C81BB81B3837C81BB87B1EB
:1000D000806687B986B18C6086B9379A7894369AEB
:1000E0002FE986E891E0215080409040E1F700C080
:1000F000000008950895662311F096980895969A41
:100100000895FC0187B1813651F0823671F0803656
:1001100081F485B190E09183808381E60BC085B145
:1001200090E09383828382E605C085B190E0958359
:10013000848380E687B908951F920F920FB60F92BD
:1001400011240F900FBE0F901F9018951F920F92C1
:100150000FB60F9211242F933F934F935F936F939A
:100160007F938F939F93AF93BF93EF93FF9384E716
:1001700090E00E948100369AFF91EF91BF91AF917C
:100180009F918F917F916F915F914F913F912F91AF
:100190000F900FBE0F901F9018958EB58B608EBD7F
:1001A00089B7806189BF88E09DE39BBD8ABD0895C2
:1001B000F89478940E94CD0060E084E790E00E947B
:1001C0007B00FFCF84E790E00C94560084E790E03A
:1001D0000C947A00CF93DF9390E0FC01EE0FFF1FA9
:1001E000EE57FF4F208131814CE0489FD001499F5D
:1001F000B00D1124A959BF4F0D90BC91A02D4C9169
:10020000DC0155E0AA0FBB1F5A95E1F7A20FB31FFF
:10021000AC56BF4F4C93208131812F31310538F4DA
:10022000208131812F5F3F4F3183208302C01182B3
:100230001082FC01E658FF4F20812F5F2083DC01F4
:10024000A558BF4F2C912130E9F520812B31D0F1F9
:1002500023E1FC01E458FF4F20831C92FC01E3588A
:10026000FF4F2081222371F110822CE0289FD001C2
:10027000299FB00D1124A959BF4F1296CD91DC9141
:100280001397488127E0289FF001299FF00D112442
:10029000E05AFF4F81E090E09C01058002C0220FF0
:1002A000331F0A94E2F7242B288316960D90BC91F5
:1002B000A02D2C91068002C0880F991F0A94E2F7A6
:1002C000822B8C93DF91CF910895CF93DF9390E0B1
:1002D000FC01E458FF4F2081222379F02CE0289F75
:1002E000D001299FB00D1124A959BF4F0D90BC9189
:1002F000A02D80818C93108258C09C01220F331F47
:10030000F901E058FF4F40815181D901A258BF4FF8
:100310002D913C914217530729F12CE0289FD001E1
:10032000299FB00D1124A959BF4FCD91DC91208197
:100330003181DC0184E0AA0FBB1F8A95E1F7A20F8F
:10034000B31FAC57BF4F8C918883808191810F97E9
:1003500030F48081918101969183808326C011823F
:10036000108223C0FC01E358FF4F21E020832CE0E2
:10037000289FF001299FF00D1124E959FF4FA28118
:10038000B3812C9137E0389FF001399FF00D112493
:10039000E05AFF4F81E090E0058002C0880F991F6E
:1003A0000A94E2F7809582238C93DF91CF91089590
:1003B0001F920F920FB60F9211242F933F934F93DA
:1003C0005F936F937F938F939F93AF93BF93EF93BD
:1003D000FF9380E00E94EA00FF91EF91BF91AF91FF
:1003E0009F918F917F916F915F914F913F912F914D
:1003F0000F900FBE0F901F9018951F920F920FB67F
:100400000F9211242F933F934F935F936F937F939A
:100410008F939F93AF93BF93EF93FF9380E00E94DE
:100420006501FF91EF91BF91AF919F918F917F9166
:100430006F915F914F913F912F910F900FBE0F9051
:100440001F901895EE0FFF1F0590F491E02D099471
:1004500010E0CBE2D0E004C0FE010E94220221960F
:0A046000CC32D107C9F7F894FFCFA2
:10046A00010207040305052C002A0040002B004066
:04047A000029000055
:00000001FF
