S00C0000746573742E7372656358
S11300000C942A000C9434000C9434000C943400A6
S11300100C9434000C9434000C9434000C9434008C
S11300200C9434000C9434000C9434000C9434007C
S11300300C9434000C9434000C9434000C9434006C
S11300400C9434000C9434000C9434000C9434005C
S11300500C94340011241FBECFE5D8E0DEBFCDBF21
S11300600E9436000C9447000C94000087B3886308
S113007087BB81B3806C81BB81B3837F81BB8C9A46
S11300809298949A939A81B3807C81BBFFCFF89421
S1050090FFCF9C
S9030000FC
