:100000000C942C000C9454000C9454000C94540048
:100010000C9454000C9454000C9454000C949B00C9
:100020000C9454000C9454000C9454000C94540000
:100030000C9454000C9410020C9435020C9454004F
:100040000C94A5000C9454000C9454000C9454008F
:100050000C945400DC00E10011241FBECFE5D8E071
:10006000DEBFCDBF10E0A0E6B0E0EAEDF4E002C0F4
:1000700005900D92A437B107D9F720E0A4E7B0E0CE
:1000800001C01D92A43BB207E1F710E0CBE2D0E043
:1000900004C02197FE010E945A02CA32D107C9F753
:1000A0000E94D7000C9460020C940000FC011182A5
:1000B00010821382128215821482F89487B38863A7
:1000C00087BB81B3806C81BB81B3837C81BB87B1EB
:1000D000806687B986B18C6086B9379A7894369AEB
:1000E0002FE986E891E0215080409040E1F700C080
:1000F000000008950895FC0197B1913659F09236A9
:1001000081F09036A9F485B190E09183808381E6F7
:1001100087B9089585B190E09383828382E687B999
:10012000089585B190E09583848380E687B908952A
:1001300080E687B908951F920F920FB60F9211248F
:100140000F900FBE0F901F9018951F920F920FB631
:100150000F9211242F933F934F935F936F937F934D
:100160008F939F93AF93BF93EF93FF9384E790E0B8
:100170000E947B00369AFF91EF91BF91AF919F91C2
:100180008F917F916F915F914F913F912F910F9040
:100190000FBE0F901F9018958EB58B608EBD89B7DE
:1001A000806189BF88E09DE39BBD8ABD0895F89476
:1001B00078940E94CC00FFCF84E790E00E94560024
:1001C000089584E790E00E947A000895CF93DF932A
:1001D00090E09C01220F331FD901AE57BF4F4D91C4
:1001E0005C911197F901E80FF91FEE0FFF1FEE0F59
:1001F000FF1FE959FF4F0190F081E02D2081FC01A4
:10020000EE0FFF1FE295F295F07FFE27E07FFE27BD
:10021000E40FF51FEC56FF4F20832D913C91119771
:100220002F31310540F4FD01208131812F5F3F4F97
:100230003183208307C0FC01EE0FFF1FEE57FF4FF5
:1002400011821082FC01E658FF4F20812F5F20832E
:10025000FC01E558FF4F2081213009F04EC0FC0120
:10026000E658FF4F20812B31C8F547C0FC01E35809
:10027000FF4F1082FC01EE0FFF1FE80FF91FEE0F7A
:10028000FF1FEE0FFF1FE959FF4FC281D381488145
:10029000DC01AA0FBB1FAA0FBB1FAA0FBB1FA81B05
:1002A000B90BA05ABF4F81E090E09C0115960C90CD
:1002B000159702C0220F331F0A94E2F7242B2883DC
:1002C0000680F781E02D208116960C9002C0880FE1
:1002D000991F0A94E2F7822B80830FC023E1FC016F
:1002E000E458FF4F2083FC01E558FF4F1082FC01CA
:1002F000E358FF4F20812111B9CFDF91CF910895AD
:10030000CF93DF9390E0FC01E458FF4F208122233C
:10031000A1F0FC01EE0FFF1FE80FF91FEE0FFF1F0A
:10032000EE0FFF1FE959FF4FA081B181FC01E45896
:10033000FF4F80818C93108270C09C01220F331F6D
:10034000F901E058FF4F40815181F901E258FF4F18
:100350002081318142175307B9F1FC01EE0FFF1FD5
:10036000DF01A80FB91FAA0FBB1FAA0FBB1FA959F6
:10037000BF4FCD91DC91E058FF4F20813181DC01EE
:10038000A295B295B07FBA27A07FBA27A20FB31F5C
:10039000AC57BF4F2C912883208131812F303105FC
:1003A00058F4880F991FFC01E058FF4F808191811C
:1003B00001969183808331C0880F991FFC01E0581A
:1003C000FF4F1182108229C0FC01E358FF4F21E04A
:1003D0002083FC01EE0FFF1FE80FF91FEE0FFF1F38
:1003E000EE0FFF1FE959FF4FA281B3812C91FC0151
:1003F000EE0FFF1FEE0FFF1FEE0FFF1FE81BF90BA5
:10040000E05AFF4F81E090E0058002C0880F991FFD
:100410000A94E2F7809582238C93DF91CF9108951F
:100420001F920F920FB60F9211242F933F934F9369
:100430005F936F937F938F939F93AF93BF93EF934C
:10044000FF9380E00E94E600FF91EF91BF91AF9192
:100450009F918F917F916F915F914F913F912F91DC
:100460000F900FBE0F901F9018951F920F920FB60E
:100470000F9211242F933F934F935F936F937F932A
:100480008F939F93AF93BF93EF93FF9380E00E946E
:100490008001FF91EF91BF91AF919F918F917F91DB
:1004A0006F915F914F913F912F910F900FBE0F90E1
:1004B0001F901895EE0FFF1F0590F491E02D099401
:1004C00010E0CBE2D0E004C0FE010E945A02219667
:0A04D000CC32D107C9F7F894FFCF32
:1004DA00010207040305052C002A0040002B0040F6
:0404EA0000290000E5
:00000001FF
