S01F000046696E616C50726F6A65637446726F6D536372617463682E73726563E8
S11300000C942A000C9447000C9447000C9447006D
S11300100C9447000C9447000C9447000C94470040
S11300200C9447000C9447000C9447000C94470030
S11300300C9447000C9474010C9499010C9447009F
S11300400C9447000C9447000C9447000C94470010
S11300500C94470011241FBECFE5D8E0DEBFCDBF0E
S113006010E0A0E6B0E0E0E8F3E002C005900D92F5
S1130070A437B107D9F720E0A4E7B0E001C01D928E
S1130080AE3AB207E1F70E9449000C94BE010C9409
S11300900000FFCFCF93DF9390E09C01220F331F2A
S11300A0D901A458BF4F4D915C911197F901E80F04
S11300B0F91FEE0FFF1FEE0FFF1FE959FF4F0190CD
S11300C0F081E02D2081FC01EE0FFF1FE295F295F7
S11300D0F07FFE27E07FFE27E40FF51FE257FF4F76
S11300E020832D913C9111972F31310540F4FD016E
S11300F0208131812F5F3F4F3183208307C0FC0172
S1130100EE0FFF1FE458FF4F11821082FC01EC58E0
S1130110FF4F20812F5F2083FC01EB58FF4F20818C
S1130120213009F04EC0FC01EC58FF4F20812B31E7
S1130130C8F547C0FC01E958FF4F1082FC01EE0FDF
S1130140FF1FE80FF91FEE0FFF1FEE0FFF1FE95906
S1130150FF4FC281D3814881DC01AA0FBB1FAA0FC4
S1130160BB1FAA0FBB1FA81BB90BA05ABF4F81E02E
S113017090E09C0115960C90159702C0220F331F36
S11301800A94E2F7242B28830680F781E02D20814E
S113019016960C9002C0880F991F0A94E2F7822BDE
S11301A080830FC023E1FC01EA58FF4F2083FC0148
S11301B0EB58FF4F1082FC01E958FF4F20812111B9
S11301C0B9CFDF91CF910895CF93DF9390E0FC01F5
S11301D0EA58FF4F20812223A1F0FC01EE0FFF1FFC
S11301E0E80FF91FEE0FFF1FEE0FFF1FE959FF4F36
S11301F0A081B181FC01EA58FF4F80818C93108269
S113020070C09C01220F331FF901E658FF4F408153
S11302105181F901E858FF4F20813181421753077A
S1130220B9F1FC01EE0FFF1FDF01A80FB91FAA0FE0
S1130230BB1FAA0FBB1FA959BF4FCD91DC91E65834
S1130240FF4F20813181DC01A295B295B07FBA279E
S1130250A07FBA27A20FB31FA258BF4F2C912883A7
S1130260208131812F30310558F4880F991FFC010A
S1130270E658FF4F8081918101969183808331C03C
S1130280880F991FFC01E658FF4F1182108229C084
S1130290FC01E958FF4F21E02083FC01EE0FFF1F12
S11302A0E80FF91FEE0FFF1FEE0FFF1FE959FF4F75
S11302B0A281B3812C91FC01EE0FFF1FEE0FFF1FF3
S11302C0EE0FFF1FE81BF90BE05AFF4F81E090E0AF
S11302D0058002C0880F991F0A94E2F78095822353
S11302E08C93DF91CF9108951F920F920FB60F92C6
S11302F011242F933F934F935F936F937F938F9327
S11303009F93AF93BF93EF93FF9380E00E944A00C3
S1130310FF91EF91BF91AF919F918F917F916F91D9
S11303205F914F913F912F910F900FBE0F901F90AF
S113033018951F920F920FB60F9211242F933F938B
S11303404F935F936F937F938F939F93AF93BF93D9
S1130350EF93FF9380E00E94E400FF91EF91BF913F
S1130360AF919F918F917F916F915F914F913F9149
S11303702F910F900FBE0F901F901895F894FFCFF8
S1130380010207040305052C002A0040002B00404D
S1070390002900003C
S9030000FC
